{"bridge/kleros/contracts/CathedralKlerosBridgeWithVoting.sol":{"CathedralKlerosBridgeWithVoting":{"abi":[{"inputs":[{"internalType":"address","name":"_veaRelay","type":"address"},{"internalType":"address","name":"_rbbTargetAddress","type":"address"},{"internalType":"address","name":"_theosisOracle","type":"address"}],"stateMutability":"nonpayable","type":"constructor"},{"inputs":[{"internalType":"address","name":"owner","type":"address"}],"name":"OwnableInvalidOwner","type":"error"},{"inputs":[{"internalType":"address","name":"account","type":"address"}],"name":"OwnableUnauthorizedAccount","type":"error"},{"anonymous":false,"inputs":[{"indexed":true,"internalType":"uint256","name":"disputeID","type":"uint256"},{"indexed":true,"internalType":"address","name":"sender","type":"address"},{"indexed":false,"internalType":"bytes","name":"data","type":"bytes"}],"name":"DisputeSentToRBB","type":"event"},{"anonymous":false,"inputs":[{"indexed":true,"internalType":"address","name":"previousOwner","type":"address"},{"indexed":true,"internalType":"address","name":"newOwner","type":"address"}],"name":"OwnershipTransferred","type":"event"},{"anonymous":false,"inputs":[{"indexed":false,"internalType":"address","name":"oldTarget","type":"address"},{"indexed":false,"internalType":"address","name":"newTarget","type":"address"}],"name":"RBBTargetUpdated","type":"event"},{"anonymous":false,"inputs":[{"indexed":false,"internalType":"address","name":"oldOracle","type":"address"},{"indexed":false,"internalType":"address","name":"newOracle","type":"address"}],"name":"TheosisOracleUpdated","type":"event"},{"anonymous":false,"inputs":[{"indexed":false,"internalType":"address","name":"oldRelay","type":"address"},{"indexed":false,"internalType":"address","name":"newRelay","type":"address"}],"name":"VeaRelayUpdated","type":"event"},{"anonymous":false,"inputs":[{"indexed":true,"internalType":"address","name":"juror","type":"address"},{"indexed":false,"internalType":"uint256","name":"disputeID","type":"uint256"},{"indexed":false,"internalType":"uint256","name":"choice","type":"uint256"},{"indexed":false,"internalType":"uint256","name":"weightedPower","type":"uint256"}],"name":"WeightedVoteCast","type":"event"},{"inputs":[{"internalType":"address","name":"juror","type":"address"},{"internalType":"uint256","name":"baseWeight","type":"uint256"}],"name":"calculateWeightedVote","outputs":[{"internalType":"uint256","name":"","type":"uint256"}],"stateMutability":"view","type":"function"},{"inputs":[{"internalType":"uint256","name":"disputeID","type":"uint256"},{"internalType":"uint256","name":"choice","type":"uint256"},{"internalType":"uint256","name":"baseWeight","type":"uint256"}],"name":"castVote","outputs":[],"stateMutability":"nonpayable","type":"function"},{"inputs":[],"name":"owner","outputs":[{"internalType":"address","name":"","type":"address"}],"stateMutability":"view","type":"function"},{"inputs":[],"name":"rbbTargetAddress","outputs":[{"internalType":"address","name":"","type":"address"}],"stateMutability":"view","type":"function"},{"inputs":[],"name":"renounceOwnership","outputs":[],"stateMutability":"nonpayable","type":"function"},{"inputs":[{"internalType":"uint256","name":"disputeID","type":"uint256"},{"internalType":"bytes","name":"data","type":"bytes"}],"name":"sendDisputeToRBB","outputs":[],"stateMutability":"nonpayable","type":"function"},{"inputs":[{"internalType":"address","name":"_rbbTargetAddress","type":"address"}],"name":"setRBBTargetAddress","outputs":[],"stateMutability":"nonpayable","type":"function"},{"inputs":[{"internalType":"address","name":"_theosisOracle","type":"address"}],"name":"setTheosisOracle","outputs":[],"stateMutability":"nonpayable","type":"function"},{"inputs":[{"internalType":"address","name":"_veaRelay","type":"address"}],"name":"setVeaRelay","outputs":[],"stateMutability":"nonpayable","type":"function"},{"inputs":[],"name":"theosisOracle","outputs":[{"internalType":"contract PNKTheosisOracle","name":"","type":"address"}],"stateMutability":"view","type":"function"},{"inputs":[{"internalType":"address","name":"newOwner","type":"address"}],"name":"transferOwnership","outputs":[],"stateMutability":"nonpayable","type":"function"},{"inputs":[],"name":"veaRelay","outputs":[{"internalType":"contract IVeaRelay","name":"","type":"address"}],"stateMutability":"view","type":"function"}],"evm":{"bytecode":{"linkReferences":{},"object":"60806040523480156200001157600080fd5b50604051620014e8380380620014e88339818101604052810190620000379190620002bd565b828233600073ffffffffffffffffffffffffffffffffffffffff168173ffffffffffffffffffffffffffffffffffffffff1603620000af5760006040517f1e4fbdf7000000000000000000000000000000000000000000000000000000008152600401620000a691906200032a565b60405180910390fd5b620000c0816200018f60201b60201c565b5081600160006101000a81548173ffffffffffffffffffffffffffffffffffffffff021916908373ffffffffffffffffffffffffffffffffffffffff16021790555080600260006101000a81548173ffffffffffffffffffffffffffffffffffffffff021916908373ffffffffffffffffffffffffffffffffffffffff160217905550505080600360006101000a81548173ffffffffffffffffffffffffffffffffffffffff021916908373ffffffffffffffffffffffffffffffffffffffff16021790555050505062000347565b60008060009054906101000a900473ffffffffffffffffffffffffffffffffffffffff169050816000806101000a81548173ffffffffffffffffffffffffffffffffffffffff021916908373ffffffffffffffffffffffffffffffffffffffff1602179055508173ffffffffffffffffffffffffffffffffffffffff168173ffffffffffffffffffffffffffffffffffffffff167f8be0079c531659141344cd1fd0a4f28419497f9722a3daafe3b4186f6b6457e060405160405180910390a35050565b600080fd5b600073ffffffffffffffffffffffffffffffffffffffff82169050919050565b6000620002858262000258565b9050919050565b620002978162000278565b8114620002a357600080fd5b50565b600081519050620002b7816200028c565b92915050565b600080600060608486031215620002d957620002d862000253565b5b6000620002e986828701620002a6565b9350506020620002fc86828701620002a6565b92505060406200030f86828701620002a6565b9150509250925092565b620003248162000278565b82525050565b600060208201905062000341600083018462000319565b92915050565b61119180620003576000396000f3fe608060405234801561001057600080fd5b50600436106100b45760003560e01c80638da5cb5b116100715780638da5cb5b1461016757806399cd0e6b14610185578063bbad480b146101a1578063dd965853146101bf578063f2fde38b146101db578063fcf2621c146101f7576100b4565b8063111b4af3146100b957806333900d18146100d55780635be5e3ec146100f3578063715018a61461010f5780637780031b146101195780637cac66fd14610137575b600080fd5b6100d360048036038101906100ce9190610a6a565b610213565b005b6100dd6102ba565b6040516100ea9190610aa6565b60405180910390f35b61010d60048036038101906101089190610af7565b6102e0565b005b610117610447565b005b61012161045b565b60405161012e9190610ba9565b60405180910390f35b610151600480360381019061014c9190610bc4565b610481565b60405161015e9190610c13565b60405180910390f35b61016f610555565b60405161017c9190610aa6565b60405180910390f35b61019f600480360381019061019a9190610a6a565b61057e565b005b6101a9610625565b6040516101b69190610c4f565b60405180910390f35b6101d960048036038101906101d49190610db0565b61064b565b005b6101f560048036038101906101f09190610a6a565b610778565b005b610211600480360381019061020c9190610a6a565b6107fe565b005b61021b6108a5565b7f6be5fd9d4ac61943d5d544a71b70a12e80c50a10e3cfbf112128290f3f53a507600160009054906101000a900473ffffffffffffffffffffffffffffffffffffffff168260405161026e929190610e0c565b60405180910390a180600160006101000a81548173ffffffffffffffffffffffffffffffffffffffff021916908373ffffffffffffffffffffffffffffffffffffffff16021790555050565b600260009054906101000a900473ffffffffffffffffffffffffffffffffffffffff1681565b60006102ec3383610481565b905060008382604051602001610303929190610e92565b6040516020818303038152906040529050600085338360405160200161032b93929190610f4d565b6040516020818303038152906040529050600160009054906101000a900473ffffffffffffffffffffffffffffffffffffffff1673ffffffffffffffffffffffffffffffffffffffff1663bb5ddb0f600260009054906101000a900473ffffffffffffffffffffffffffffffffffffffff16836040518363ffffffff1660e01b81526004016103bb929190610f8b565b600060405180830381600087803b1580156103d557600080fd5b505af11580156103e9573d6000803e3d6000fd5b505050503373ffffffffffffffffffffffffffffffffffffffff167f8b1b3fcc89685b820646658fabea0f39dd789bd52d01b492a4a573361de53c5d87878660405161043793929190610fbb565b60405180910390a2505050505050565b61044f6108a5565b610459600061092c565b565b600360009054906101000a900473ffffffffffffffffffffffffffffffffffffffff1681565b600080600360009054906101000a900473ffffffffffffffffffffffffffffffffffffffff1673ffffffffffffffffffffffffffffffffffffffff1663c1379619856040518263ffffffff1660e01b81526004016104df9190610aa6565b602060405180830381865afa1580156104fc573d6000803e3d6000fd5b505050506040513d601f19601f820116820180604052508101906105209190611007565b905060006103e882856105339190611063565b61053d91906110d4565b9050808461054b9190611105565b9250505092915050565b60008060009054906101000a900473ffffffffffffffffffffffffffffffffffffffff16905090565b6105866108a5565b7fdb1a932f114abb4905c2f8217b185972d57f1b9fa43b41552fcc2c2e79e876ae600360009054906101000a900473ffffffffffffffffffffffffffffffffffffffff16826040516105d9929190610e0c565b60405180910390a180600360006101000a81548173ffffffffffffffffffffffffffffffffffffffff021916908373ffffffffffffffffffffffffffffffffffffffff16021790555050565b600160009054906101000a900473ffffffffffffffffffffffffffffffffffffffff1681565b600082338360405160200161066293929190610f4d565b6040516020818303038152906040529050600160009054906101000a900473ffffffffffffffffffffffffffffffffffffffff1673ffffffffffffffffffffffffffffffffffffffff1663bb5ddb0f600260009054906101000a900473ffffffffffffffffffffffffffffffffffffffff16836040518363ffffffff1660e01b81526004016106f2929190610f8b565b600060405180830381600087803b15801561070c57600080fd5b505af1158015610720573d6000803e3d6000fd5b505050503373ffffffffffffffffffffffffffffffffffffffff16837ff7b8586cdc23b86e3c55f6246d36654761a666ef1dbd8fa45484bdce52a95c718460405161076b9190611139565b60405180910390a3505050565b6107806108a5565b600073ffffffffffffffffffffffffffffffffffffffff168173ffffffffffffffffffffffffffffffffffffffff16036107f25760006040517f1e4fbdf70000000000000000000000000000000000000000000000000000000081526004016107e99190610aa6565b60405180910390fd5b6107fb8161092c565b50565b6108066108a5565b7f373301681903967ce1914da76f353066453eaeea7158831d63d21aa78dc26cb7600260009054906101000a900473ffffffffffffffffffffffffffffffffffffffff1682604051610859929190610e0c565b60405180910390a180600260006101000a81548173ffffffffffffffffffffffffffffffffffffffff021916908373ffffffffffffffffffffffffffffffffffffffff16021790555050565b6108ad6109f0565b73ffffffffffffffffffffffffffffffffffffffff166108cb610555565b73ffffffffffffffffffffffffffffffffffffffff161461092a576108ee6109f0565b6040517f118cdaa70000000000000000000000000000000000000000000000000000000081526004016109219190610aa6565b60405180910390fd5b565b60008060009054906101000a900473ffffffffffffffffffffffffffffffffffffffff169050816000806101000a81548173ffffffffffffffffffffffffffffffffffffffff021916908373ffffffffffffffffffffffffffffffffffffffff1602179055508173ffffffffffffffffffffffffffffffffffffffff168173ffffffffffffffffffffffffffffffffffffffff167f8be0079c531659141344cd1fd0a4f28419497f9722a3daafe3b4186f6b6457e060405160405180910390a35050565b600033905090565b6000604051905090565b600080fd5b600080fd5b600073ffffffffffffffffffffffffffffffffffffffff82169050919050565b6000610a3782610a0c565b9050919050565b610a4781610a2c565b8114610a5257600080fd5b50565b600081359050610a6481610a3e565b92915050565b600060208284031215610a8057610a7f610a02565b5b6000610a8e84828501610a55565b91505092915050565b610aa081610a2c565b82525050565b6000602082019050610abb6000830184610a97565b92915050565b6000819050919050565b610ad481610ac1565b8114610adf57600080fd5b50565b600081359050610af181610acb565b92915050565b600080600060608486031215610b1057610b0f610a02565b5b6000610b1e86828701610ae2565b9350506020610b2f86828701610ae2565b9250506040610b4086828701610ae2565b9150509250925092565b6000819050919050565b6000610b6f610b6a610b6584610a0c565b610b4a565b610a0c565b9050919050565b6000610b8182610b54565b9050919050565b6000610b9382610b76565b9050919050565b610ba381610b88565b82525050565b6000602082019050610bbe6000830184610b9a565b92915050565b60008060408385031215610bdb57610bda610a02565b5b6000610be985828601610a55565b9250506020610bfa85828601610ae2565b9150509250929050565b610c0d81610ac1565b82525050565b6000602082019050610c286000830184610c04565b92915050565b6000610c3982610b76565b9050919050565b610c4981610c2e565b82525050565b6000602082019050610c646000830184610c40565b92915050565b600080fd5b600080fd5b6000601f19601f8301169050919050565b7f4e487b7100000000000000000000000000000000000000000000000000000000600052604160045260246000fd5b610cbd82610c74565b810181811067ffffffffffffffff82111715610cdc57610cdb610c85565b5b80604052505050565b6000610cef6109f8565b9050610cfb8282610cb4565b919050565b600067ffffffffffffffff821115610d1b57610d1a610c85565b5b610d2482610c74565b9050602081019050919050565b82818337600083830152505050565b6000610d53610d4e84610d00565b610ce5565b905082815260208101848484011115610d6f57610d6e610c6f565b5b610d7a848285610d31565b509392505050565b600082601f830112610d9757610d96610c6a565b5b8135610da7848260208601610d40565b91505092915050565b60008060408385031215610dc757610dc6610a02565b5b6000610dd585828601610ae2565b925050602083013567ffffffffffffffff811115610df657610df5610a07565b5b610e0285828601610d82565b9150509250929050565b6000604082019050610e216000830185610a97565b610e2e6020830184610a97565b9392505050565b600082825260208201905092915050565b7f564f544500000000000000000000000000000000000000000000000000000000600082015250565b6000610e7c600483610e35565b9150610e8782610e46565b602082019050919050565b60006060820190508181036000830152610eab81610e6f565b9050610eba6020830185610c04565b610ec76040830184610c04565b9392505050565b600081519050919050565b600082825260208201905092915050565b60005b83811015610f08578082015181840152602081019050610eed565b60008484015250505050565b6000610f1f82610ece565b610f298185610ed9565b9350610f39818560208601610eea565b610f4281610c74565b840191505092915050565b6000606082019050610f626000830186610c04565b610f6f6020830185610a97565b8181036040830152610f818184610f14565b9050949350505050565b6000604082019050610fa06000830185610a97565b8181036020830152610fb28184610f14565b90509392505050565b6000606082019050610fd06000830186610c04565b610fdd6020830185610c04565b610fea6040830184610c04565b949350505050565b60008151905061100181610acb565b92915050565b60006020828403121561101d5761101c610a02565b5b600061102b84828501610ff2565b91505092915050565b7f4e487b7100000000000000000000000000000000000000000000000000000000600052601160045260246000fd5b600061106e82610ac1565b915061107983610ac1565b925082820261108781610ac1565b9150828204841483151761109e5761109d611034565b5b5092915050565b7f4e487b7100000000000000000000000000000000000000000000000000000000600052601260045260246000fd5b60006110df82610ac1565b91506110ea83610ac1565b9250826110fa576110f96110a5565b5b828204905092915050565b600061111082610ac1565b915061111b83610ac1565b925082820190508082111561113357611132611034565b5b92915050565b600060208201905081810360008301526111538184610f14565b90509291505056fea26469706673582212200537231f5f3a7d146dbd8f179db64ee52c81de561be8d695c01b74bd353ce01064736f6c63430008180033","opcodes":"PUSH1 0x80 PUSH1 0x40 MSTORE CALLVALUE DUP1 ISZERO PUSH3 0x11 JUMPI PUSH1 0x0 DUP1 REVERT JUMPDEST POP PUSH1 0x40 MLOAD PUSH3 0x14E8 CODESIZE SUB DUP1 PUSH3 0x14E8 DUP4 CODECOPY DUP2 DUP2 ADD PUSH1 0x40 MSTORE DUP2 ADD SWAP1 PUSH3 0x37 SWAP2 SWAP1 PUSH3 0x2BD JUMP JUMPDEST DUP3 DUP3 CALLER PUSH1 0x0 PUSH20 0xFFFFFFFFFFFFFFFFFFFFFFFFFFFFFFFFFFFFFFFF AND DUP2 PUSH20 0xFFFFFFFFFFFFFFFFFFFFFFFFFFFFFFFFFFFFFFFF AND SUB PUSH3 0xAF JUMPI PUSH1 0x0 PUSH1 0x40 MLOAD PUSH32 0x1E4FBDF700000000000000000000000000000000000000000000000000000000 DUP2 MSTORE PUSH1 0x4 ADD PUSH3 0xA6 SWAP2 SWAP1 PUSH3 0x32A JUMP JUMPDEST PUSH1 0x40 MLOAD DUP1 SWAP2 SUB SWAP1 REVERT JUMPDEST PUSH3 0xC0 DUP2 PUSH3 0x18F PUSH1 0x20 SHL PUSH1 0x20 SHR JUMP JUMPDEST POP DUP2 PUSH1 0x1 PUSH1 0x0 PUSH2 0x100 EXP DUP2 SLOAD DUP2 PUSH20 0xFFFFFFFFFFFFFFFFFFFFFFFFFFFFFFFFFFFFFFFF MUL NOT AND SWAP1 DUP4 PUSH20 0xFFFFFFFFFFFFFFFFFFFFFFFFFFFFFFFFFFFFFFFF AND MUL OR SWAP1 SSTORE POP DUP1 PUSH1 0x2 PUSH1 0x0 PUSH2 0x100 EXP DUP2 SLOAD DUP2 PUSH20 0xFFFFFFFFFFFFFFFFFFFFFFFFFFFFFFFFFFFFFFFF MUL NOT AND SWAP1 DUP4 PUSH20 0xFFFFFFFFFFFFFFFFFFFFFFFFFFFFFFFFFFFFFFFF AND MUL OR SWAP1 SSTORE POP POP POP DUP1 PUSH1 0x3 PUSH1 0x0 PUSH2 0x100 EXP DUP2 SLOAD DUP2 PUSH20 0xFFFFFFFFFFFFFFFFFFFFFFFFFFFFFFFFFFFFFFFF MUL NOT AND SWAP1 DUP4 PUSH20 0xFFFFFFFFFFFFFFFFFFFFFFFFFFFFFFFFFFFFFFFF AND MUL OR SWAP1 SSTORE POP POP POP POP PUSH3 0x347 JUMP JUMPDEST PUSH1 0x0 DUP1 PUSH1 0x0 SWAP1 SLOAD SWAP1 PUSH2 0x100 EXP SWAP1 DIV PUSH20 0xFFFFFFFFFFFFFFFFFFFFFFFFFFFFFFFFFFFFFFFF AND SWAP1 POP DUP2 PUSH1 0x0 DUP1 PUSH2 0x100 EXP DUP2 SLOAD DUP2 PUSH20 0xFFFFFFFFFFFFFFFFFFFFFFFFFFFFFFFFFFFFFFFF MUL NOT AND SWAP1 DUP4 PUSH20 0xFFFFFFFFFFFFFFFFFFFFFFFFFFFFFFFFFFFFFFFF AND MUL OR SWAP1 SSTORE POP DUP2 PUSH20 0xFFFFFFFFFFFFFFFFFFFFFFFFFFFFFFFFFFFFFFFF AND DUP2 PUSH20 0xFFFFFFFFFFFFFFFFFFFFFFFFFFFFFFFFFFFFFFFF AND PUSH32 0x8BE0079C531659141344CD1FD0A4F28419497F9722A3DAAFE3B4186F6B6457E0 PUSH1 0x40 MLOAD PUSH1 0x40 MLOAD DUP1 SWAP2 SUB SWAP1 LOG3 POP POP JUMP JUMPDEST PUSH1 0x0 DUP1 REVERT JUMPDEST PUSH1 0x0 PUSH20 0xFFFFFFFFFFFFFFFFFFFFFFFFFFFFFFFFFFFFFFFF DUP3 AND SWAP1 POP SWAP2 SWAP1 POP JUMP JUMPDEST PUSH1 0x0 PUSH3 0x285 DUP3 PUSH3 0x258 JUMP JUMPDEST SWAP1 POP SWAP2 SWAP1 POP JUMP JUMPDEST PUSH3 0x297 DUP2 PUSH3 0x278 JUMP JUMPDEST DUP2 EQ PUSH3 0x2A3 JUMPI PUSH1 0x0 DUP1 REVERT JUMPDEST POP JUMP JUMPDEST PUSH1 0x0 DUP2 MLOAD SWAP1 POP PUSH3 0x2B7 DUP2 PUSH3 0x28C JUMP JUMPDEST SWAP3 SWAP2 POP POP JUMP JUMPDEST PUSH1 0x0 DUP1 PUSH1 0x0 PUSH1 0x60 DUP5 DUP7 SUB SLT ISZERO PUSH3 0x2D9 JUMPI PUSH3 0x2D8 PUSH3 0x253 JUMP JUMPDEST JUMPDEST PUSH1 0x0 PUSH3 0x2E9 DUP7 DUP3 DUP8 ADD PUSH3 0x2A6 JUMP JUMPDEST SWAP4 POP POP PUSH1 0x20 PUSH3 0x2FC DUP7 DUP3 DUP8 ADD PUSH3 0x2A6 JUMP JUMPDEST SWAP3 POP POP PUSH1 0x40 PUSH3 0x30F DUP7 DUP3 DUP8 ADD PUSH3 0x2A6 JUMP JUMPDEST SWAP2 POP POP SWAP3 POP SWAP3 POP SWAP3 JUMP JUMPDEST PUSH3 0x324 DUP2 PUSH3 0x278 JUMP JUMPDEST DUP3 MSTORE POP POP JUMP JUMPDEST PUSH1 0x0 PUSH1 0x20 DUP3 ADD SWAP1 POP PUSH3 0x341 PUSH1 0x0 DUP4 ADD DUP5 PUSH3 0x319 JUMP JUMPDEST SWAP3 SWAP2 POP POP JUMP JUMPDEST PUSH2 0x1191 DUP1 PUSH3 0x357 PUSH1 0x0 CODECOPY PUSH1 0x0 RETURN INVALID PUSH1 0x80 PUSH1 0x40 MSTORE CALLVALUE DUP1 ISZERO PUSH2 0x10 JUMPI PUSH1 0x0 DUP1 REVERT JUMPDEST POP PUSH1 0x4 CALLDATASIZE LT PUSH2 0xB4 JUMPI PUSH1 0x0 CALLDATALOAD PUSH1 0xE0 SHR DUP1 PUSH4 0x8DA5CB5B GT PUSH2 0x71 JUMPI DUP1 PUSH4 0x8DA5CB5B EQ PUSH2 0x167 JUMPI DUP1 PUSH4 0x99CD0E6B EQ PUSH2 0x185 JUMPI DUP1 PUSH4 0xBBAD480B EQ PUSH2 0x1A1 JUMPI DUP1 PUSH4 0xDD965853 EQ PUSH2 0x1BF JUMPI DUP1 PUSH4 0xF2FDE38B EQ PUSH2 0x1DB JUMPI DUP1 PUSH4 0xFCF2621C EQ PUSH2 0x1F7 JUMPI PUSH2 0xB4 JUMP JUMPDEST DUP1 PUSH4 0x111B4AF3 EQ PUSH2 0xB9 JUMPI DUP1 PUSH4 0x33900D18 EQ PUSH2 0xD5 JUMPI DUP1 PUSH4 0x5BE5E3EC EQ PUSH2 0xF3 JUMPI DUP1 PUSH4 0x715018A6 EQ PUSH2 0x10F JUMPI DUP1 PUSH4 0x7780031B EQ PUSH2 0x119 JUMPI DUP1 PUSH4 0x7CAC66FD EQ PUSH2 0x137 JUMPI JUMPDEST PUSH1 0x0 DUP1 REVERT JUMPDEST PUSH2 0xD3 PUSH1 0x4 DUP1 CALLDATASIZE SUB DUP2 ADD SWAP1 PUSH2 0xCE SWAP2 SWAP1 PUSH2 0xA6A JUMP JUMPDEST PUSH2 0x213 JUMP JUMPDEST STOP JUMPDEST PUSH2 0xDD PUSH2 0x2BA JUMP JUMPDEST PUSH1 0x40 MLOAD PUSH2 0xEA SWAP2 SWAP1 PUSH2 0xAA6 JUMP JUMPDEST PUSH1 0x40 MLOAD DUP1 SWAP2 SUB SWAP1 RETURN JUMPDEST PUSH2 0x10D PUSH1 0x4 DUP1 CALLDATASIZE SUB DUP2 ADD SWAP1 PUSH2 0x108 SWAP2 SWAP1 PUSH2 0xAF7 JUMP JUMPDEST PUSH2 0x2E0 JUMP JUMPDEST STOP JUMPDEST PUSH2 0x117 PUSH2 0x447 JUMP JUMPDEST STOP JUMPDEST PUSH2 0x121 PUSH2 0x45B JUMP JUMPDEST PUSH1 0x40 MLOAD PUSH2 0x12E SWAP2 SWAP1 PUSH2 0xBA9 JUMP JUMPDEST PUSH1 0x40 MLOAD DUP1 SWAP2 SUB SWAP1 RETURN JUMPDEST PUSH2 0x151 PUSH1 0x4 DUP1 CALLDATASIZE SUB DUP2 ADD SWAP1 PUSH2 0x14C SWAP2 SWAP1 PUSH2 0xBC4 JUMP JUMPDEST PUSH2 0x481 JUMP JUMPDEST PUSH1 0x40 MLOAD PUSH2 0x15E SWAP2 SWAP1 PUSH2 0xC13 JUMP JUMPDEST PUSH1 0x40 MLOAD DUP1 SWAP2 SUB SWAP1 RETURN JUMPDEST PUSH2 0x16F PUSH2 0x555 JUMP JUMPDEST PUSH1 0x40 MLOAD PUSH2 0x17C SWAP2 SWAP1 PUSH2 0xAA6 JUMP JUMPDEST PUSH1 0x40 MLOAD DUP1 SWAP2 SUB SWAP1 RETURN JUMPDEST PUSH2 0x19F PUSH1 0x4 DUP1 CALLDATASIZE SUB DUP2 ADD SWAP1 PUSH2 0x19A SWAP2 SWAP1 PUSH2 0xA6A JUMP JUMPDEST PUSH2 0x57E JUMP JUMPDEST STOP JUMPDEST PUSH2 0x1A9 PUSH2 0x625 JUMP JUMPDEST PUSH1 0x40 MLOAD PUSH2 0x1B6 SWAP2 SWAP1 PUSH2 0xC4F JUMP JUMPDEST PUSH1 0x40 MLOAD DUP1 SWAP2 SUB SWAP1 RETURN JUMPDEST PUSH2 0x1D9 PUSH1 0x4 DUP1 CALLDATASIZE SUB DUP2 ADD SWAP1 PUSH2 0x1D4 SWAP2 SWAP1 PUSH2 0xDB0 JUMP JUMPDEST PUSH2 0x64B JUMP JUMPDEST STOP JUMPDEST PUSH2 0x1F5 PUSH1 0x4 DUP1 CALLDATASIZE SUB DUP2 ADD SWAP1 PUSH2 0x1F0 SWAP2 SWAP1 PUSH2 0xA6A JUMP JUMPDEST PUSH2 0x778 JUMP JUMPDEST STOP JUMPDEST PUSH2 0x211 PUSH1 0x4 DUP1 CALLDATASIZE SUB DUP2 ADD SWAP1 PUSH2 0x20C SWAP2 SWAP1 PUSH2 0xA6A JUMP JUMPDEST PUSH2 0x7FE JUMP JUMPDEST STOP JUMPDEST PUSH2 0x21B PUSH2 0x8A5 JUMP JUMPDEST PUSH32 0x6BE5FD9D4AC61943D5D544A71B70A12E80C50A10E3CFBF112128290F3F53A507 PUSH1 0x1 PUSH1 0x0 SWAP1 SLOAD SWAP1 PUSH2 0x100 EXP SWAP1 DIV PUSH20 0xFFFFFFFFFFFFFFFFFFFFFFFFFFFFFFFFFFFFFFFF AND DUP3 PUSH1 0x40 MLOAD PUSH2 0x26E SWAP3 SWAP2 SWAP1 PUSH2 0xE0C JUMP JUMPDEST PUSH1 0x40 MLOAD DUP1 SWAP2 SUB SWAP1 LOG1 DUP1 PUSH1 0x1 PUSH1 0x0 PUSH2 0x100 EXP DUP2 SLOAD DUP2 PUSH20 0xFFFFFFFFFFFFFFFFFFFFFFFFFFFFFFFFFFFFFFFF MUL NOT AND SWAP1 DUP4 PUSH20 0xFFFFFFFFFFFFFFFFFFFFFFFFFFFFFFFFFFFFFFFF AND MUL OR SWAP1 SSTORE POP POP JUMP JUMPDEST PUSH1 0x2 PUSH1 0x0 SWAP1 SLOAD SWAP1 PUSH2 0x100 EXP SWAP1 DIV PUSH20 0xFFFFFFFFFFFFFFFFFFFFFFFFFFFFFFFFFFFFFFFF AND DUP2 JUMP JUMPDEST PUSH1 0x0 PUSH2 0x2EC CALLER DUP4 PUSH2 0x481 JUMP JUMPDEST SWAP1 POP PUSH1 0x0 DUP4 DUP3 PUSH1 0x40 MLOAD PUSH1 0x20 ADD PUSH2 0x303 SWAP3 SWAP2 SWAP1 PUSH2 0xE92 JUMP JUMPDEST PUSH1 0x40 MLOAD PUSH1 0x20 DUP2 DUP4 SUB SUB DUP2 MSTORE SWAP1 PUSH1 0x40 MSTORE SWAP1 POP PUSH1 0x0 DUP6 CALLER DUP4 PUSH1 0x40 MLOAD PUSH1 0x20 ADD PUSH2 0x32B SWAP4 SWAP3 SWAP2 SWAP1 PUSH2 0xF4D JUMP JUMPDEST PUSH1 0x40 MLOAD PUSH1 0x20 DUP2 DUP4 SUB SUB DUP2 MSTORE SWAP1 PUSH1 0x40 MSTORE SWAP1 POP PUSH1 0x1 PUSH1 0x0 SWAP1 SLOAD SWAP1 PUSH2 0x100 EXP SWAP1 DIV PUSH20 0xFFFFFFFFFFFFFFFFFFFFFFFFFFFFFFFFFFFFFFFF AND PUSH20 0xFFFFFFFFFFFFFFFFFFFFFFFFFFFFFFFFFFFFFFFF AND PUSH4 0xBB5DDB0F PUSH1 0x2 PUSH1 0x0 SWAP1 SLOAD SWAP1 PUSH2 0x100 EXP SWAP1 DIV PUSH20 0xFFFFFFFFFFFFFFFFFFFFFFFFFFFFFFFFFFFFFFFF AND DUP4 PUSH1 0x40 MLOAD DUP4 PUSH4 0xFFFFFFFF AND PUSH1 0xE0 SHL DUP2 MSTORE PUSH1 0x4 ADD PUSH2 0x3BB SWAP3 SWAP2 SWAP1 PUSH2 0xF8B JUMP JUMPDEST PUSH1 0x0 PUSH1 0x40 MLOAD DUP1 DUP4 SUB DUP2 PUSH1 0x0 DUP8 DUP1 EXTCODESIZE ISZERO DUP1 ISZERO PUSH2 0x3D5 JUMPI PUSH1 0x0 DUP1 REVERT JUMPDEST POP GAS CALL ISZERO DUP1 ISZERO PUSH2 0x3E9 JUMPI RETURNDATASIZE PUSH1 0x0 DUP1 RETURNDATACOPY RETURNDATASIZE PUSH1 0x0 REVERT JUMPDEST POP POP POP POP CALLER PUSH20 0xFFFFFFFFFFFFFFFFFFFFFFFFFFFFFFFFFFFFFFFF AND PUSH32 0x8B1B3FCC89685B820646658FABEA0F39DD789BD52D01B492A4A573361DE53C5D DUP8 DUP8 DUP7 PUSH1 0x40 MLOAD PUSH2 0x437 SWAP4 SWAP3 SWAP2 SWAP1 PUSH2 0xFBB JUMP JUMPDEST PUSH1 0x40 MLOAD DUP1 SWAP2 SUB SWAP1 LOG2 POP POP POP POP POP POP JUMP JUMPDEST PUSH2 0x44F PUSH2 0x8A5 JUMP JUMPDEST PUSH2 0x459 PUSH1 0x0 PUSH2 0x92C JUMP JUMPDEST JUMP JUMPDEST PUSH1 0x3 PUSH1 0x0 SWAP1 SLOAD SWAP1 PUSH2 0x100 EXP SWAP1 DIV PUSH20 0xFFFFFFFFFFFFFFFFFFFFFFFFFFFFFFFFFFFFFFFF AND DUP2 JUMP JUMPDEST PUSH1 0x0 DUP1 PUSH1 0x3 PUSH1 0x0 SWAP1 SLOAD SWAP1 PUSH2 0x100 EXP SWAP1 DIV PUSH20 0xFFFFFFFFFFFFFFFFFFFFFFFFFFFFFFFFFFFFFFFF AND PUSH20 0xFFFFFFFFFFFFFFFFFFFFFFFFFFFFFFFFFFFFFFFF AND PUSH4 0xC1379619 DUP6 PUSH1 0x40 MLOAD DUP3 PUSH4 0xFFFFFFFF AND PUSH1 0xE0 SHL DUP2 MSTORE PUSH1 0x4 ADD PUSH2 0x4DF SWAP2 SWAP1 PUSH2 0xAA6 JUMP JUMPDEST PUSH1 0x20 PUSH1 0x40 MLOAD DUP1 DUP4 SUB DUP2 DUP7 GAS STATICCALL ISZERO DUP1 ISZERO PUSH2 0x4FC JUMPI RETURNDATASIZE PUSH1 0x0 DUP1 RETURNDATACOPY RETURNDATASIZE PUSH1 0x0 REVERT JUMPDEST POP POP POP POP PUSH1 0x40 MLOAD RETURNDATASIZE PUSH1 0x1F NOT PUSH1 0x1F DUP3 ADD AND DUP3 ADD DUP1 PUSH1 0x40 MSTORE POP DUP2 ADD SWAP1 PUSH2 0x520 SWAP2 SWAP1 PUSH2 0x1007 JUMP JUMPDEST SWAP1 POP PUSH1 0x0 PUSH2 0x3E8 DUP3 DUP6 PUSH2 0x533 SWAP2 SWAP1 PUSH2 0x1063 JUMP JUMPDEST PUSH2 0x53D SWAP2 SWAP1 PUSH2 0x10D4 JUMP JUMPDEST SWAP1 POP DUP1 DUP5 PUSH2 0x54B SWAP2 SWAP1 PUSH2 0x1105 JUMP JUMPDEST SWAP3 POP POP POP SWAP3 SWAP2 POP POP JUMP JUMPDEST PUSH1 0x0 DUP1 PUSH1 0x0 SWAP1 SLOAD SWAP1 PUSH2 0x100 EXP SWAP1 DIV PUSH20 0xFFFFFFFFFFFFFFFFFFFFFFFFFFFFFFFFFFFFFFFF AND SWAP1 POP SWAP1 JUMP JUMPDEST PUSH2 0x586 PUSH2 0x8A5 JUMP JUMPDEST PUSH32 0xDB1A932F114ABB4905C2F8217B185972D57F1B9FA43B41552FCC2C2E79E876AE PUSH1 0x3 PUSH1 0x0 SWAP1 SLOAD SWAP1 PUSH2 0x100 EXP SWAP1 DIV PUSH20 0xFFFFFFFFFFFFFFFFFFFFFFFFFFFFFFFFFFFFFFFF AND DUP3 PUSH1 0x40 MLOAD PUSH2 0x5D9 SWAP3 SWAP2 SWAP1 PUSH2 0xE0C JUMP JUMPDEST PUSH1 0x40 MLOAD DUP1 SWAP2 SUB SWAP1 LOG1 DUP1 PUSH1 0x3 PUSH1 0x0 PUSH2 0x100 EXP DUP2 SLOAD DUP2 PUSH20 0xFFFFFFFFFFFFFFFFFFFFFFFFFFFFFFFFFFFFFFFF MUL NOT AND SWAP1 DUP4 PUSH20 0xFFFFFFFFFFFFFFFFFFFFFFFFFFFFFFFFFFFFFFFF AND MUL OR SWAP1 SSTORE POP POP JUMP JUMPDEST PUSH1 0x1 PUSH1 0x0 SWAP1 SLOAD SWAP1 PUSH2 0x100 EXP SWAP1 DIV PUSH20 0xFFFFFFFFFFFFFFFFFFFFFFFFFFFFFFFFFFFFFFFF AND DUP2 JUMP JUMPDEST PUSH1 0x0 DUP3 CALLER DUP4 PUSH1 0x40 MLOAD PUSH1 0x20 ADD PUSH2 0x662 SWAP4 SWAP3 SWAP2 SWAP1 PUSH2 0xF4D JUMP JUMPDEST PUSH1 0x40 MLOAD PUSH1 0x20 DUP2 DUP4 SUB SUB DUP2 MSTORE SWAP1 PUSH1 0x40 MSTORE SWAP1 POP PUSH1 0x1 PUSH1 0x0 SWAP1 SLOAD SWAP1 PUSH2 0x100 EXP SWAP1 DIV PUSH20 0xFFFFFFFFFFFFFFFFFFFFFFFFFFFFFFFFFFFFFFFF AND PUSH20 0xFFFFFFFFFFFFFFFFFFFFFFFFFFFFFFFFFFFFFFFF AND PUSH4 0xBB5DDB0F PUSH1 0x2 PUSH1 0x0 SWAP1 SLOAD SWAP1 PUSH2 0x100 EXP SWAP1 DIV PUSH20 0xFFFFFFFFFFFFFFFFFFFFFFFFFFFFFFFFFFFFFFFF AND DUP4 PUSH1 0x40 MLOAD DUP4 PUSH4 0xFFFFFFFF AND PUSH1 0xE0 SHL DUP2 MSTORE PUSH1 0x4 ADD PUSH2 0x6F2 SWAP3 SWAP2 SWAP1 PUSH2 0xF8B JUMP JUMPDEST PUSH1 0x0 PUSH1 0x40 MLOAD DUP1 DUP4 SUB DUP2 PUSH1 0x0 DUP8 DUP1 EXTCODESIZE ISZERO DUP1 ISZERO PUSH2 0x70C JUMPI PUSH1 0x0 DUP1 REVERT JUMPDEST POP GAS CALL ISZERO DUP1 ISZERO PUSH2 0x720 JUMPI RETURNDATASIZE PUSH1 0x0 DUP1 RETURNDATACOPY RETURNDATASIZE PUSH1 0x0 REVERT JUMPDEST POP POP POP POP CALLER PUSH20 0xFFFFFFFFFFFFFFFFFFFFFFFFFFFFFFFFFFFFFFFF AND DUP4 PUSH32 0xF7B8586CDC23B86E3C55F6246D36654761A666EF1DBD8FA45484BDCE52A95C71 DUP5 PUSH1 0x40 MLOAD PUSH2 0x76B SWAP2 SWAP1 PUSH2 0x1139 JUMP JUMPDEST PUSH1 0x40 MLOAD DUP1 SWAP2 SUB SWAP1 LOG3 POP POP POP JUMP JUMPDEST PUSH2 0x780 PUSH2 0x8A5 JUMP JUMPDEST PUSH1 0x0 PUSH20 0xFFFFFFFFFFFFFFFFFFFFFFFFFFFFFFFFFFFFFFFF AND DUP2 PUSH20 0xFFFFFFFFFFFFFFFFFFFFFFFFFFFFFFFFFFFFFFFF AND SUB PUSH2 0x7F2 JUMPI PUSH1 0x0 PUSH1 0x40 MLOAD PUSH32 0x1E4FBDF700000000000000000000000000000000000000000000000000000000 DUP2 MSTORE PUSH1 0x4 ADD PUSH2 0x7E9 SWAP2 SWAP1 PUSH2 0xAA6 JUMP JUMPDEST PUSH1 0x40 MLOAD DUP1 SWAP2 SUB SWAP1 REVERT JUMPDEST PUSH2 0x7FB DUP2 PUSH2 0x92C JUMP JUMPDEST POP JUMP JUMPDEST PUSH2 0x806 PUSH2 0x8A5 JUMP JUMPDEST PUSH32 0x373301681903967CE1914DA76F353066453EAEEA7158831D63D21AA78DC26CB7 PUSH1 0x2 PUSH1 0x0 SWAP1 SLOAD SWAP1 PUSH2 0x100 EXP SWAP1 DIV PUSH20 0xFFFFFFFFFFFFFFFFFFFFFFFFFFFFFFFFFFFFFFFF AND DUP3 PUSH1 0x40 MLOAD PUSH2 0x859 SWAP3 SWAP2 SWAP1 PUSH2 0xE0C JUMP JUMPDEST PUSH1 0x40 MLOAD DUP1 SWAP2 SUB SWAP1 LOG1 DUP1 PUSH1 0x2 PUSH1 0x0 PUSH2 0x100 EXP DUP2 SLOAD DUP2 PUSH20 0xFFFFFFFFFFFFFFFFFFFFFFFFFFFFFFFFFFFFFFFF MUL NOT AND SWAP1 DUP4 PUSH20 0xFFFFFFFFFFFFFFFFFFFFFFFFFFFFFFFFFFFFFFFF AND MUL OR SWAP1 SSTORE POP POP JUMP JUMPDEST PUSH2 0x8AD PUSH2 0x9F0 JUMP JUMPDEST PUSH20 0xFFFFFFFFFFFFFFFFFFFFFFFFFFFFFFFFFFFFFFFF AND PUSH2 0x8CB PUSH2 0x555 JUMP JUMPDEST PUSH20 0xFFFFFFFFFFFFFFFFFFFFFFFFFFFFFFFFFFFFFFFF AND EQ PUSH2 0x92A JUMPI PUSH2 0x8EE PUSH2 0x9F0 JUMP JUMPDEST PUSH1 0x40 MLOAD PUSH32 0x118CDAA700000000000000000000000000000000000000000000000000000000 DUP2 MSTORE PUSH1 0x4 ADD PUSH2 0x921 SWAP2 SWAP1 PUSH2 0xAA6 JUMP JUMPDEST PUSH1 0x40 MLOAD DUP1 SWAP2 SUB SWAP1 REVERT JUMPDEST JUMP JUMPDEST PUSH1 0x0 DUP1 PUSH1 0x0 SWAP1 SLOAD SWAP1 PUSH2 0x100 EXP SWAP1 DIV PUSH20 0xFFFFFFFFFFFFFFFFFFFFFFFFFFFFFFFFFFFFFFFF AND SWAP1 POP DUP2 PUSH1 0x0 DUP1 PUSH2 0x100 EXP DUP2 SLOAD DUP2 PUSH20 0xFFFFFFFFFFFFFFFFFFFFFFFFFFFFFFFFFFFFFFFF MUL NOT AND SWAP1 DUP4 PUSH20 0xFFFFFFFFFFFFFFFFFFFFFFFFFFFFFFFFFFFFFFFF AND MUL OR SWAP1 SSTORE POP DUP2 PUSH20 0xFFFFFFFFFFFFFFFFFFFFFFFFFFFFFFFFFFFFFFFF AND DUP2 PUSH20 0xFFFFFFFFFFFFFFFFFFFFFFFFFFFFFFFFFFFFFFFF AND PUSH32 0x8BE0079C531659141344CD1FD0A4F28419497F9722A3DAAFE3B4186F6B6457E0 PUSH1 0x40 MLOAD PUSH1 0x40 MLOAD DUP1 SWAP2 SUB SWAP1 LOG3 POP POP JUMP JUMPDEST PUSH1 0x0 CALLER SWAP1 POP SWAP1 JUMP JUMPDEST PUSH1 0x0 PUSH1 0x40 MLOAD SWAP1 POP SWAP1 JUMP JUMPDEST PUSH1 0x0 DUP1 REVERT JUMPDEST PUSH1 0x0 DUP1 REVERT JUMPDEST PUSH1 0x0 PUSH20 0xFFFFFFFFFFFFFFFFFFFFFFFFFFFFFFFFFFFFFFFF DUP3 AND SWAP1 POP SWAP2 SWAP1 POP JUMP JUMPDEST PUSH1 0x0 PUSH2 0xA37 DUP3 PUSH2 0xA0C JUMP JUMPDEST SWAP1 POP SWAP2 SWAP1 POP JUMP JUMPDEST PUSH2 0xA47 DUP2 PUSH2 0xA2C JUMP JUMPDEST DUP2 EQ PUSH2 0xA52 JUMPI PUSH1 0x0 DUP1 REVERT JUMPDEST POP JUMP JUMPDEST PUSH1 0x0 DUP2 CALLDATALOAD SWAP1 POP PUSH2 0xA64 DUP2 PUSH2 0xA3E JUMP JUMPDEST SWAP3 SWAP2 POP POP JUMP JUMPDEST PUSH1 0x0 PUSH1 0x20 DUP3 DUP5 SUB SLT ISZERO PUSH2 0xA80 JUMPI PUSH2 0xA7F PUSH2 0xA02 JUMP JUMPDEST JUMPDEST PUSH1 0x0 PUSH2 0xA8E DUP5 DUP3 DUP6 ADD PUSH2 0xA55 JUMP JUMPDEST SWAP2 POP POP SWAP3 SWAP2 POP POP JUMP JUMPDEST PUSH2 0xAA0 DUP2 PUSH2 0xA2C JUMP JUMPDEST DUP3 MSTORE POP POP JUMP JUMPDEST PUSH1 0x0 PUSH1 0x20 DUP3 ADD SWAP1 POP PUSH2 0xABB PUSH1 0x0 DUP4 ADD DUP5 PUSH2 0xA97 JUMP JUMPDEST SWAP3 SWAP2 POP POP JUMP JUMPDEST PUSH1 0x0 DUP2 SWAP1 POP SWAP2 SWAP1 POP JUMP JUMPDEST PUSH2 0xAD4 DUP2 PUSH2 0xAC1 JUMP JUMPDEST DUP2 EQ PUSH2 0xADF JUMPI PUSH1 0x0 DUP1 REVERT JUMPDEST POP JUMP JUMPDEST PUSH1 0x0 DUP2 CALLDATALOAD SWAP1 POP PUSH2 0xAF1 DUP2 PUSH2 0xACB JUMP JUMPDEST SWAP3 SWAP2 POP POP JUMP JUMPDEST PUSH1 0x0 DUP1 PUSH1 0x0 PUSH1 0x60 DUP5 DUP7 SUB SLT ISZERO PUSH2 0xB10 JUMPI PUSH2 0xB0F PUSH2 0xA02 JUMP JUMPDEST JUMPDEST PUSH1 0x0 PUSH2 0xB1E DUP7 DUP3 DUP8 ADD PUSH2 0xAE2 JUMP JUMPDEST SWAP4 POP POP PUSH1 0x20 PUSH2 0xB2F DUP7 DUP3 DUP8 ADD PUSH2 0xAE2 JUMP JUMPDEST SWAP3 POP POP PUSH1 0x40 PUSH2 0xB40 DUP7 DUP3 DUP8 ADD PUSH2 0xAE2 JUMP JUMPDEST SWAP2 POP POP SWAP3 POP SWAP3 POP SWAP3 JUMP JUMPDEST PUSH1 0x0 DUP2 SWAP1 POP SWAP2 SWAP1 POP JUMP JUMPDEST PUSH1 0x0 PUSH2 0xB6F PUSH2 0xB6A PUSH2 0xB65 DUP5 PUSH2 0xA0C JUMP JUMPDEST PUSH2 0xB4A JUMP JUMPDEST PUSH2 0xA0C JUMP JUMPDEST SWAP1 POP SWAP2 SWAP1 POP JUMP JUMPDEST PUSH1 0x0 PUSH2 0xB81 DUP3 PUSH2 0xB54 JUMP JUMPDEST SWAP1 POP SWAP2 SWAP1 POP JUMP JUMPDEST PUSH1 0x0 PUSH2 0xB93 DUP3 PUSH2 0xB76 JUMP JUMPDEST SWAP1 POP SWAP2 SWAP1 POP JUMP JUMPDEST PUSH2 0xBA3 DUP2 PUSH2 0xB88 JUMP JUMPDEST DUP3 MSTORE POP POP JUMP JUMPDEST PUSH1 0x0 PUSH1 0x20 DUP3 ADD SWAP1 POP PUSH2 0xBBE PUSH1 0x0 DUP4 ADD DUP5 PUSH2 0xB9A JUMP JUMPDEST SWAP3 SWAP2 POP POP JUMP JUMPDEST PUSH1 0x0 DUP1 PUSH1 0x40 DUP4 DUP6 SUB SLT ISZERO PUSH2 0xBDB JUMPI PUSH2 0xBDA PUSH2 0xA02 JUMP JUMPDEST JUMPDEST PUSH1 0x0 PUSH2 0xBE9 DUP6 DUP3 DUP7 ADD PUSH2 0xA55 JUMP JUMPDEST SWAP3 POP POP PUSH1 0x20 PUSH2 0xBFA DUP6 DUP3 DUP7 ADD PUSH2 0xAE2 JUMP JUMPDEST SWAP2 POP POP SWAP3 POP SWAP3 SWAP1 POP JUMP JUMPDEST PUSH2 0xC0D DUP2 PUSH2 0xAC1 JUMP JUMPDEST DUP3 MSTORE POP POP JUMP JUMPDEST PUSH1 0x0 PUSH1 0x20 DUP3 ADD SWAP1 POP PUSH2 0xC28 PUSH1 0x0 DUP4 ADD DUP5 PUSH2 0xC04 JUMP JUMPDEST SWAP3 SWAP2 POP POP JUMP JUMPDEST PUSH1 0x0 PUSH2 0xC39 DUP3 PUSH2 0xB76 JUMP JUMPDEST SWAP1 POP SWAP2 SWAP1 POP JUMP JUMPDEST PUSH2 0xC49 DUP2 PUSH2 0xC2E JUMP JUMPDEST DUP3 MSTORE POP POP JUMP JUMPDEST PUSH1 0x0 PUSH1 0x20 DUP3 ADD SWAP1 POP PUSH2 0xC64 PUSH1 0x0 DUP4 ADD DUP5 PUSH2 0xC40 JUMP JUMPDEST SWAP3 SWAP2 POP POP JUMP JUMPDEST PUSH1 0x0 DUP1 REVERT JUMPDEST PUSH1 0x0 DUP1 REVERT JUMPDEST PUSH1 0x0 PUSH1 0x1F NOT PUSH1 0x1F DUP4 ADD AND SWAP1 POP SWAP2 SWAP1 POP JUMP JUMPDEST PUSH32 0x4E487B7100000000000000000000000000000000000000000000000000000000 PUSH1 0x0 MSTORE PUSH1 0x41 PUSH1 0x4 MSTORE PUSH1 0x24 PUSH1 0x0 REVERT JUMPDEST PUSH2 0xCBD DUP3 PUSH2 0xC74 JUMP JUMPDEST DUP2 ADD DUP2 DUP2 LT PUSH8 0xFFFFFFFFFFFFFFFF DUP3 GT OR ISZERO PUSH2 0xCDC JUMPI PUSH2 0xCDB PUSH2 0xC85 JUMP JUMPDEST JUMPDEST DUP1 PUSH1 0x40 MSTORE POP POP POP JUMP JUMPDEST PUSH1 0x0 PUSH2 0xCEF PUSH2 0x9F8 JUMP JUMPDEST SWAP1 POP PUSH2 0xCFB DUP3 DUP3 PUSH2 0xCB4 JUMP JUMPDEST SWAP2 SWAP1 POP JUMP JUMPDEST PUSH1 0x0 PUSH8 0xFFFFFFFFFFFFFFFF DUP3 GT ISZERO PUSH2 0xD1B JUMPI PUSH2 0xD1A PUSH2 0xC85 JUMP JUMPDEST JUMPDEST PUSH2 0xD24 DUP3 PUSH2 0xC74 JUMP JUMPDEST SWAP1 POP PUSH1 0x20 DUP2 ADD SWAP1 POP SWAP2 SWAP1 POP JUMP JUMPDEST DUP3 DUP2 DUP4 CALLDATACOPY PUSH1 0x0 DUP4 DUP4 ADD MSTORE POP POP POP JUMP JUMPDEST PUSH1 0x0 PUSH2 0xD53 PUSH2 0xD4E DUP5 PUSH2 0xD00 JUMP JUMPDEST PUSH2 0xCE5 JUMP JUMPDEST SWAP1 POP DUP3 DUP2 MSTORE PUSH1 0x20 DUP2 ADD DUP5 DUP5 DUP5 ADD GT ISZERO PUSH2 0xD6F JUMPI PUSH2 0xD6E PUSH2 0xC6F JUMP JUMPDEST JUMPDEST PUSH2 0xD7A DUP5 DUP3 DUP6 PUSH2 0xD31 JUMP JUMPDEST POP SWAP4 SWAP3 POP POP POP JUMP JUMPDEST PUSH1 0x0 DUP3 PUSH1 0x1F DUP4 ADD SLT PUSH2 0xD97 JUMPI PUSH2 0xD96 PUSH2 0xC6A JUMP JUMPDEST JUMPDEST DUP2 CALLDATALOAD PUSH2 0xDA7 DUP5 DUP3 PUSH1 0x20 DUP7 ADD PUSH2 0xD40 JUMP JUMPDEST SWAP2 POP POP SWAP3 SWAP2 POP POP JUMP JUMPDEST PUSH1 0x0 DUP1 PUSH1 0x40 DUP4 DUP6 SUB SLT ISZERO PUSH2 0xDC7 JUMPI PUSH2 0xDC6 PUSH2 0xA02 JUMP JUMPDEST JUMPDEST PUSH1 0x0 PUSH2 0xDD5 DUP6 DUP3 DUP7 ADD PUSH2 0xAE2 JUMP JUMPDEST SWAP3 POP POP PUSH1 0x20 DUP4 ADD CALLDATALOAD PUSH8 0xFFFFFFFFFFFFFFFF DUP2 GT ISZERO PUSH2 0xDF6 JUMPI PUSH2 0xDF5 PUSH2 0xA07 JUMP JUMPDEST JUMPDEST PUSH2 0xE02 DUP6 DUP3 DUP7 ADD PUSH2 0xD82 JUMP JUMPDEST SWAP2 POP POP SWAP3 POP SWAP3 SWAP1 POP JUMP JUMPDEST PUSH1 0x0 PUSH1 0x40 DUP3 ADD SWAP1 POP PUSH2 0xE21 PUSH1 0x0 DUP4 ADD DUP6 PUSH2 0xA97 JUMP JUMPDEST PUSH2 0xE2E PUSH1 0x20 DUP4 ADD DUP5 PUSH2 0xA97 JUMP JUMPDEST SWAP4 SWAP3 POP POP POP JUMP JUMPDEST PUSH1 0x0 DUP3 DUP3 MSTORE PUSH1 0x20 DUP3 ADD SWAP1 POP SWAP3 SWAP2 POP POP JUMP JUMPDEST PUSH32 0x564F544500000000000000000000000000000000000000000000000000000000 PUSH1 0x0 DUP3 ADD MSTORE POP JUMP JUMPDEST PUSH1 0x0 PUSH2 0xE7C PUSH1 0x4 DUP4 PUSH2 0xE35 JUMP JUMPDEST SWAP2 POP PUSH2 0xE87 DUP3 PUSH2 0xE46 JUMP JUMPDEST PUSH1 0x20 DUP3 ADD SWAP1 POP SWAP2 SWAP1 POP JUMP JUMPDEST PUSH1 0x0 PUSH1 0x60 DUP3 ADD SWAP1 POP DUP2 DUP2 SUB PUSH1 0x0 DUP4 ADD MSTORE PUSH2 0xEAB DUP2 PUSH2 0xE6F JUMP JUMPDEST SWAP1 POP PUSH2 0xEBA PUSH1 0x20 DUP4 ADD DUP6 PUSH2 0xC04 JUMP JUMPDEST PUSH2 0xEC7 PUSH1 0x40 DUP4 ADD DUP5 PUSH2 0xC04 JUMP JUMPDEST SWAP4 SWAP3 POP POP POP JUMP JUMPDEST PUSH1 0x0 DUP2 MLOAD SWAP1 POP SWAP2 SWAP1 POP JUMP JUMPDEST PUSH1 0x0 DUP3 DUP3 MSTORE PUSH1 0x20 DUP3 ADD SWAP1 POP SWAP3 SWAP2 POP POP JUMP JUMPDEST PUSH1 0x0 JUMPDEST DUP4 DUP2 LT ISZERO PUSH2 0xF08 JUMPI DUP1 DUP3 ADD MLOAD DUP2 DUP5 ADD MSTORE PUSH1 0x20 DUP2 ADD SWAP1 POP PUSH2 0xEED JUMP JUMPDEST PUSH1 0x0 DUP5 DUP5 ADD MSTORE POP POP POP POP JUMP JUMPDEST PUSH1 0x0 PUSH2 0xF1F DUP3 PUSH2 0xECE JUMP JUMPDEST PUSH2 0xF29 DUP2 DUP6 PUSH2 0xED9 JUMP JUMPDEST SWAP4 POP PUSH2 0xF39 DUP2 DUP6 PUSH1 0x20 DUP7 ADD PUSH2 0xEEA JUMP JUMPDEST PUSH2 0xF42 DUP2 PUSH2 0xC74 JUMP JUMPDEST DUP5 ADD SWAP2 POP POP SWAP3 SWAP2 POP POP JUMP JUMPDEST PUSH1 0x0 PUSH1 0x60 DUP3 ADD SWAP1 POP PUSH2 0xF62 PUSH1 0x0 DUP4 ADD DUP7 PUSH2 0xC04 JUMP JUMPDEST PUSH2 0xF6F PUSH1 0x20 DUP4 ADD DUP6 PUSH2 0xA97 JUMP JUMPDEST DUP2 DUP2 SUB PUSH1 0x40 DUP4 ADD MSTORE PUSH2 0xF81 DUP2 DUP5 PUSH2 0xF14 JUMP JUMPDEST SWAP1 POP SWAP5 SWAP4 POP POP POP POP JUMP JUMPDEST PUSH1 0x0 PUSH1 0x40 DUP3 ADD SWAP1 POP PUSH2 0xFA0 PUSH1 0x0 DUP4 ADD DUP6 PUSH2 0xA97 JUMP JUMPDEST DUP2 DUP2 SUB PUSH1 0x20 DUP4 ADD MSTORE PUSH2 0xFB2 DUP2 DUP5 PUSH2 0xF14 JUMP JUMPDEST SWAP1 POP SWAP4 SWAP3 POP POP POP JUMP JUMPDEST PUSH1 0x0 PUSH1 0x60 DUP3 ADD SWAP1 POP PUSH2 0xFD0 PUSH1 0x0 DUP4 ADD DUP7 PUSH2 0xC04 JUMP JUMPDEST PUSH2 0xFDD PUSH1 0x20 DUP4 ADD DUP6 PUSH2 0xC04 JUMP JUMPDEST PUSH2 0xFEA PUSH1 0x40 DUP4 ADD DUP5 PUSH2 0xC04 JUMP JUMPDEST SWAP5 SWAP4 POP POP POP POP JUMP JUMPDEST PUSH1 0x0 DUP2 MLOAD SWAP1 POP PUSH2 0x1001 DUP2 PUSH2 0xACB JUMP JUMPDEST SWAP3 SWAP2 POP POP JUMP JUMPDEST PUSH1 0x0 PUSH1 0x20 DUP3 DUP5 SUB SLT ISZERO PUSH2 0x101D JUMPI PUSH2 0x101C PUSH2 0xA02 JUMP JUMPDEST JUMPDEST PUSH1 0x0 PUSH2 0x102B DUP5 DUP3 DUP6 ADD PUSH2 0xFF2 JUMP JUMPDEST SWAP2 POP POP SWAP3 SWAP2 POP POP JUMP JUMPDEST PUSH32 0x4E487B7100000000000000000000000000000000000000000000000000000000 PUSH1 0x0 MSTORE PUSH1 0x11 PUSH1 0x4 MSTORE PUSH1 0x24 PUSH1 0x0 REVERT JUMPDEST PUSH1 0x0 PUSH2 0x106E DUP3 PUSH2 0xAC1 JUMP JUMPDEST SWAP2 POP PUSH2 0x1079 DUP4 PUSH2 0xAC1 JUMP JUMPDEST SWAP3 POP DUP3 DUP3 MUL PUSH2 0x1087 DUP2 PUSH2 0xAC1 JUMP JUMPDEST SWAP2 POP DUP3 DUP3 DIV DUP5 EQ DUP4 ISZERO OR PUSH2 0x109E JUMPI PUSH2 0x109D PUSH2 0x1034 JUMP JUMPDEST JUMPDEST POP SWAP3 SWAP2 POP POP JUMP JUMPDEST PUSH32 0x4E487B7100000000000000000000000000000000000000000000000000000000 PUSH1 0x0 MSTORE PUSH1 0x12 PUSH1 0x4 MSTORE PUSH1 0x24 PUSH1 0x0 REVERT JUMPDEST PUSH1 0x0 PUSH2 0x10DF DUP3 PUSH2 0xAC1 JUMP JUMPDEST SWAP2 POP PUSH2 0x10EA DUP4 PUSH2 0xAC1 JUMP JUMPDEST SWAP3 POP DUP3 PUSH2 0x10FA JUMPI PUSH2 0x10F9 PUSH2 0x10A5 JUMP JUMPDEST JUMPDEST DUP3 DUP3 DIV SWAP1 POP SWAP3 SWAP2 POP POP JUMP JUMPDEST PUSH1 0x0 PUSH2 0x1110 DUP3 PUSH2 0xAC1 JUMP JUMPDEST SWAP2 POP PUSH2 0x111B DUP4 PUSH2 0xAC1 JUMP JUMPDEST SWAP3 POP DUP3 DUP3 ADD SWAP1 POP DUP1 DUP3 GT ISZERO PUSH2 0x1133 JUMPI PUSH2 0x1132 PUSH2 0x1034 JUMP JUMPDEST JUMPDEST SWAP3 SWAP2 POP POP JUMP JUMPDEST PUSH1 0x0 PUSH1 0x20 DUP3 ADD SWAP1 POP DUP2 DUP2 SUB PUSH1 0x0 DUP4 ADD MSTORE PUSH2 0x1153 DUP2 DUP5 PUSH2 0xF14 JUMP JUMPDEST SWAP1 POP SWAP3 SWAP2 POP POP JUMP INVALID LOG2 PUSH5 0x6970667358 0x22 SLT KECCAK256 SDIV CALLDATACOPY 0x23 0x1F PUSH0 GASPRICE PUSH30 0x146DBD8F179DB64EE52C81DE561BE8D695C01B74BD353CE01064736F6C63 NUMBER STOP ADDMOD XOR STOP CALLER "},"methodIdentifiers":{"calculateWeightedVote(address,uint256)":"7cac66fd","castVote(uint256,uint256,uint256)":"5be5e3ec","owner()":"8da5cb5b","rbbTargetAddress()":"33900d18","renounceOwnership()":"715018a6","sendDisputeToRBB(uint256,bytes)":"dd965853","setRBBTargetAddress(address)":"fcf2621c","setTheosisOracle(address)":"99cd0e6b","setVeaRelay(address)":"111b4af3","theosisOracle()":"7780031b","transferOwnership(address)":"f2fde38b","veaRelay()":"bbad480b"}}}}}