{
  "_format": "hh-sol-artifact-1",
  "contractName": "MockVeaRelay",
  "sourceName": "bridge/kleros/contracts/MockVeaRelay.sol",
  "abi": [
    {
      "anonymous": false,
      "inputs": [
        {
          "indexed": false,
          "internalType": "address",
          "name": "target",
          "type": "address"
        },
        {
          "indexed": false,
          "internalType": "bytes",
          "name": "message",
          "type": "bytes"
        }
      ],
      "name": "MessageSent",
      "type": "event"
    },
    {
      "inputs": [
        {
          "internalType": "address",
          "name": "target",
          "type": "address"
        },
        {
          "internalType": "bytes",
          "name": "message",
          "type": "bytes"
        }
      ],
      "name": "sendMessage",
      "outputs": [],
      "stateMutability": "nonpayable",
      "type": "function"
    }
  ],
  "bytecode": "0x608060405234801561001057600080fd5b50610391806100206000396000f3fe608060405234801561001057600080fd5b506004361061002b5760003560e01c8063bb5ddb0f14610030575b600080fd5b61004a60048036038101906100459190610241565b61004c565b005b7ff22594d45c97446a57498873c6f8577dd7b9cda99a97b41b60339c38b8790fe1828260405161007d92919061032b565b60405180910390a15050565b6000604051905090565b600080fd5b600080fd5b600073ffffffffffffffffffffffffffffffffffffffff82169050919050565b60006100c88261009d565b9050919050565b6100d8816100bd565b81146100e357600080fd5b50565b6000813590506100f5816100cf565b92915050565b600080fd5b600080fd5b6000601f19601f8301169050919050565b7f4e487b7100000000000000000000000000000000000000000000000000000000600052604160045260246000fd5b61014e82610105565b810181811067ffffffffffffffff8211171561016d5761016c610116565b5b80604052505050565b6000610180610089565b905061018c8282610145565b919050565b600067ffffffffffffffff8211156101ac576101ab610116565b5b6101b582610105565b9050602081019050919050565b82818337600083830152505050565b60006101e46101df84610191565b610176565b905082815260208101848484011115610200576101ff610100565b5b61020b8482856101c2565b509392505050565b600082601f830112610228576102276100fb565b5b81356102388482602086016101d1565b91505092915050565b6000806040838503121561025857610257610093565b5b6000610266858286016100e6565b925050602083013567ffffffffffffffff81111561028757610286610098565b5b61029385828601610213565b9150509250929050565b6102a6816100bd565b82525050565b600081519050919050565b600082825260208201905092915050565b60005b838110156102e65780820151818401526020810190506102cb565b60008484015250505050565b60006102fd826102ac565b61030781856102b7565b93506103178185602086016102c8565b61032081610105565b840191505092915050565b6000604082019050610340600083018561029d565b818103602083015261035281846102f2565b9050939250505056fea2646970667358221220d591267c4c9c1d2c5a4afdbc583e42c0d0556d5b2e0cadae59066934a266c7d164736f6c63430008180033",
  "linkReferences": {},
  "deployedLinkReferences": {}
}