{
  "_format": "hh-sol-artifact-1",
  "contractName": "CathedralKlerosBridgeWithVoting",
  "sourceName": "bridge/kleros/contracts/CathedralKlerosBridgeWithVoting.sol",
  "abi": [
    {
      "inputs": [
        {
          "internalType": "address",
          "name": "_veaRelay",
          "type": "address"
        },
        {
          "internalType": "address",
          "name": "_rbbTargetAddress",
          "type": "address"
        },
        {
          "internalType": "address",
          "name": "_theosisOracle",
          "type": "address"
        }
      ],
      "stateMutability": "nonpayable",
      "type": "constructor"
    },
    {
      "inputs": [
        {
          "internalType": "address",
          "name": "owner",
          "type": "address"
        }
      ],
      "name": "OwnableInvalidOwner",
      "type": "error"
    },
    {
      "inputs": [
        {
          "internalType": "address",
          "name": "account",
          "type": "address"
        }
      ],
      "name": "OwnableUnauthorizedAccount",
      "type": "error"
    },
    {
      "anonymous": false,
      "inputs": [
        {
          "indexed": true,
          "internalType": "uint256",
          "name": "disputeID",
          "type": "uint256"
        },
        {
          "indexed": true,
          "internalType": "address",
          "name": "sender",
          "type": "address"
        },
        {
          "indexed": false,
          "internalType": "bytes",
          "name": "data",
          "type": "bytes"
        }
      ],
      "name": "DisputeSentToRBB",
      "type": "event"
    },
    {
      "anonymous": false,
      "inputs": [
        {
          "indexed": true,
          "internalType": "address",
          "name": "previousOwner",
          "type": "address"
        },
        {
          "indexed": true,
          "internalType": "address",
          "name": "newOwner",
          "type": "address"
        }
      ],
      "name": "OwnershipTransferred",
      "type": "event"
    },
    {
      "anonymous": false,
      "inputs": [
        {
          "indexed": false,
          "internalType": "address",
          "name": "oldTarget",
          "type": "address"
        },
        {
          "indexed": false,
          "internalType": "address",
          "name": "newTarget",
          "type": "address"
        }
      ],
      "name": "RBBTargetUpdated",
      "type": "event"
    },
    {
      "anonymous": false,
      "inputs": [
        {
          "indexed": false,
          "internalType": "address",
          "name": "oldOracle",
          "type": "address"
        },
        {
          "indexed": false,
          "internalType": "address",
          "name": "newOracle",
          "type": "address"
        }
      ],
      "name": "TheosisOracleUpdated",
      "type": "event"
    },
    {
      "anonymous": false,
      "inputs": [
        {
          "indexed": false,
          "internalType": "address",
          "name": "oldRelay",
          "type": "address"
        },
        {
          "indexed": false,
          "internalType": "address",
          "name": "newRelay",
          "type": "address"
        }
      ],
      "name": "VeaRelayUpdated",
      "type": "event"
    },
    {
      "anonymous": false,
      "inputs": [
        {
          "indexed": true,
          "internalType": "address",
          "name": "juror",
          "type": "address"
        },
        {
          "indexed": false,
          "internalType": "uint256",
          "name": "disputeID",
          "type": "uint256"
        },
        {
          "indexed": false,
          "internalType": "uint256",
          "name": "choice",
          "type": "uint256"
        },
        {
          "indexed": false,
          "internalType": "uint256",
          "name": "weightedPower",
          "type": "uint256"
        }
      ],
      "name": "WeightedVoteCast",
      "type": "event"
    },
    {
      "inputs": [
        {
          "internalType": "address",
          "name": "juror",
          "type": "address"
        },
        {
          "internalType": "uint256",
          "name": "baseWeight",
          "type": "uint256"
        }
      ],
      "name": "calculateWeightedVote",
      "outputs": [
        {
          "internalType": "uint256",
          "name": "",
          "type": "uint256"
        }
      ],
      "stateMutability": "view",
      "type": "function"
    },
    {
      "inputs": [
        {
          "internalType": "uint256",
          "name": "disputeID",
          "type": "uint256"
        },
        {
          "internalType": "uint256",
          "name": "choice",
          "type": "uint256"
        },
        {
          "internalType": "uint256",
          "name": "baseWeight",
          "type": "uint256"
        }
      ],
      "name": "castVote",
      "outputs": [],
      "stateMutability": "nonpayable",
      "type": "function"
    },
    {
      "inputs": [],
      "name": "owner",
      "outputs": [
        {
          "internalType": "address",
          "name": "",
          "type": "address"
        }
      ],
      "stateMutability": "view",
      "type": "function"
    },
    {
      "inputs": [],
      "name": "rbbTargetAddress",
      "outputs": [
        {
          "internalType": "address",
          "name": "",
          "type": "address"
        }
      ],
      "stateMutability": "view",
      "type": "function"
    },
    {
      "inputs": [],
      "name": "renounceOwnership",
      "outputs": [],
      "stateMutability": "nonpayable",
      "type": "function"
    },
    {
      "inputs": [
        {
          "internalType": "uint256",
          "name": "disputeID",
          "type": "uint256"
        },
        {
          "internalType": "bytes",
          "name": "data",
          "type": "bytes"
        }
      ],
      "name": "sendDisputeToRBB",
      "outputs": [],
      "stateMutability": "nonpayable",
      "type": "function"
    },
    {
      "inputs": [
        {
          "internalType": "address",
          "name": "_rbbTargetAddress",
          "type": "address"
        }
      ],
      "name": "setRBBTargetAddress",
      "outputs": [],
      "stateMutability": "nonpayable",
      "type": "function"
    },
    {
      "inputs": [
        {
          "internalType": "address",
          "name": "_theosisOracle",
          "type": "address"
        }
      ],
      "name": "setTheosisOracle",
      "outputs": [],
      "stateMutability": "nonpayable",
      "type": "function"
    },
    {
      "inputs": [
        {
          "internalType": "address",
          "name": "_veaRelay",
          "type": "address"
        }
      ],
      "name": "setVeaRelay",
      "outputs": [],
      "stateMutability": "nonpayable",
      "type": "function"
    },
    {
      "inputs": [],
      "name": "theosisOracle",
      "outputs": [
        {
          "internalType": "contract PNKTheosisOracle",
          "name": "",
          "type": "address"
        }
      ],
      "stateMutability": "view",
      "type": "function"
    },
    {
      "inputs": [
        {
          "internalType": "address",
          "name": "newOwner",
          "type": "address"
        }
      ],
      "name": "transferOwnership",
      "outputs": [],
      "stateMutability": "nonpayable",
      "type": "function"
    },
    {
      "inputs": [],
      "name": "veaRelay",
      "outputs": [
        {
          "internalType": "contract IVeaRelay",
          "name": "",
          "type": "address"
        }
      ],
      "stateMutability": "view",
      "type": "function"
    }
  ],
  "bytecode": "0x60806040523480156200001157600080fd5b50604051620014e8380380620014e88339818101604052810190620000379190620002bd565b828233600073ffffffffffffffffffffffffffffffffffffffff168173ffffffffffffffffffffffffffffffffffffffff1603620000af5760006040517f1e4fbdf7000000000000000000000000000000000000000000000000000000008152600401620000a691906200032a565b60405180910390fd5b620000c0816200018f60201b60201c565b5081600160006101000a81548173ffffffffffffffffffffffffffffffffffffffff021916908373ffffffffffffffffffffffffffffffffffffffff16021790555080600260006101000a81548173ffffffffffffffffffffffffffffffffffffffff021916908373ffffffffffffffffffffffffffffffffffffffff160217905550505080600360006101000a81548173ffffffffffffffffffffffffffffffffffffffff021916908373ffffffffffffffffffffffffffffffffffffffff16021790555050505062000347565b60008060009054906101000a900473ffffffffffffffffffffffffffffffffffffffff169050816000806101000a81548173ffffffffffffffffffffffffffffffffffffffff021916908373ffffffffffffffffffffffffffffffffffffffff1602179055508173ffffffffffffffffffffffffffffffffffffffff168173ffffffffffffffffffffffffffffffffffffffff167f8be0079c531659141344cd1fd0a4f28419497f9722a3daafe3b4186f6b6457e060405160405180910390a35050565b600080fd5b600073ffffffffffffffffffffffffffffffffffffffff82169050919050565b6000620002858262000258565b9050919050565b620002978162000278565b8114620002a357600080fd5b50565b600081519050620002b7816200028c565b92915050565b600080600060608486031215620002d957620002d862000253565b5b6000620002e986828701620002a6565b9350506020620002fc86828701620002a6565b92505060406200030f86828701620002a6565b9150509250925092565b620003248162000278565b82525050565b600060208201905062000341600083018462000319565b92915050565b61119180620003576000396000f3fe608060405234801561001057600080fd5b50600436106100b45760003560e01c80638da5cb5b116100715780638da5cb5b1461016757806399cd0e6b14610185578063bbad480b146101a1578063dd965853146101bf578063f2fde38b146101db578063fcf2621c146101f7576100b4565b8063111b4af3146100b957806333900d18146100d55780635be5e3ec146100f3578063715018a61461010f5780637780031b146101195780637cac66fd14610137575b600080fd5b6100d360048036038101906100ce9190610a6a565b610213565b005b6100dd6102ba565b6040516100ea9190610aa6565b60405180910390f35b61010d60048036038101906101089190610af7565b6102e0565b005b610117610447565b005b61012161045b565b60405161012e9190610ba9565b60405180910390f35b610151600480360381019061014c9190610bc4565b610481565b60405161015e9190610c13565b60405180910390f35b61016f610555565b60405161017c9190610aa6565b60405180910390f35b61019f600480360381019061019a9190610a6a565b61057e565b005b6101a9610625565b6040516101b69190610c4f565b60405180910390f35b6101d960048036038101906101d49190610db0565b61064b565b005b6101f560048036038101906101f09190610a6a565b610778565b005b610211600480360381019061020c9190610a6a565b6107fe565b005b61021b6108a5565b7f6be5fd9d4ac61943d5d544a71b70a12e80c50a10e3cfbf112128290f3f53a507600160009054906101000a900473ffffffffffffffffffffffffffffffffffffffff168260405161026e929190610e0c565b60405180910390a180600160006101000a81548173ffffffffffffffffffffffffffffffffffffffff021916908373ffffffffffffffffffffffffffffffffffffffff16021790555050565b600260009054906101000a900473ffffffffffffffffffffffffffffffffffffffff1681565b60006102ec3383610481565b905060008382604051602001610303929190610e92565b6040516020818303038152906040529050600085338360405160200161032b93929190610f4d565b6040516020818303038152906040529050600160009054906101000a900473ffffffffffffffffffffffffffffffffffffffff1673ffffffffffffffffffffffffffffffffffffffff1663bb5ddb0f600260009054906101000a900473ffffffffffffffffffffffffffffffffffffffff16836040518363ffffffff1660e01b81526004016103bb929190610f8b565b600060405180830381600087803b1580156103d557600080fd5b505af11580156103e9573d6000803e3d6000fd5b505050503373ffffffffffffffffffffffffffffffffffffffff167f8b1b3fcc89685b820646658fabea0f39dd789bd52d01b492a4a573361de53c5d87878660405161043793929190610fbb565b60405180910390a2505050505050565b61044f6108a5565b610459600061092c565b565b600360009054906101000a900473ffffffffffffffffffffffffffffffffffffffff1681565b600080600360009054906101000a900473ffffffffffffffffffffffffffffffffffffffff1673ffffffffffffffffffffffffffffffffffffffff1663c1379619856040518263ffffffff1660e01b81526004016104df9190610aa6565b602060405180830381865afa1580156104fc573d6000803e3d6000fd5b505050506040513d601f19601f820116820180604052508101906105209190611007565b905060006103e882856105339190611063565b61053d91906110d4565b9050808461054b9190611105565b9250505092915050565b60008060009054906101000a900473ffffffffffffffffffffffffffffffffffffffff16905090565b6105866108a5565b7fdb1a932f114abb4905c2f8217b185972d57f1b9fa43b41552fcc2c2e79e876ae600360009054906101000a900473ffffffffffffffffffffffffffffffffffffffff16826040516105d9929190610e0c565b60405180910390a180600360006101000a81548173ffffffffffffffffffffffffffffffffffffffff021916908373ffffffffffffffffffffffffffffffffffffffff16021790555050565b600160009054906101000a900473ffffffffffffffffffffffffffffffffffffffff1681565b600082338360405160200161066293929190610f4d565b6040516020818303038152906040529050600160009054906101000a900473ffffffffffffffffffffffffffffffffffffffff1673ffffffffffffffffffffffffffffffffffffffff1663bb5ddb0f600260009054906101000a900473ffffffffffffffffffffffffffffffffffffffff16836040518363ffffffff1660e01b81526004016106f2929190610f8b565b600060405180830381600087803b15801561070c57600080fd5b505af1158015610720573d6000803e3d6000fd5b505050503373ffffffffffffffffffffffffffffffffffffffff16837ff7b8586cdc23b86e3c55f6246d36654761a666ef1dbd8fa45484bdce52a95c718460405161076b9190611139565b60405180910390a3505050565b6107806108a5565b600073ffffffffffffffffffffffffffffffffffffffff168173ffffffffffffffffffffffffffffffffffffffff16036107f25760006040517f1e4fbdf70000000000000000000000000000000000000000000000000000000081526004016107e99190610aa6565b60405180910390fd5b6107fb8161092c565b50565b6108066108a5565b7f373301681903967ce1914da76f353066453eaeea7158831d63d21aa78dc26cb7600260009054906101000a900473ffffffffffffffffffffffffffffffffffffffff1682604051610859929190610e0c565b60405180910390a180600260006101000a81548173ffffffffffffffffffffffffffffffffffffffff021916908373ffffffffffffffffffffffffffffffffffffffff16021790555050565b6108ad6109f0565b73ffffffffffffffffffffffffffffffffffffffff166108cb610555565b73ffffffffffffffffffffffffffffffffffffffff161461092a576108ee6109f0565b6040517f118cdaa70000000000000000000000000000000000000000000000000000000081526004016109219190610aa6565b60405180910390fd5b565b60008060009054906101000a900473ffffffffffffffffffffffffffffffffffffffff169050816000806101000a81548173ffffffffffffffffffffffffffffffffffffffff021916908373ffffffffffffffffffffffffffffffffffffffff1602179055508173ffffffffffffffffffffffffffffffffffffffff168173ffffffffffffffffffffffffffffffffffffffff167f8be0079c531659141344cd1fd0a4f28419497f9722a3daafe3b4186f6b6457e060405160405180910390a35050565b600033905090565b6000604051905090565b600080fd5b600080fd5b600073ffffffffffffffffffffffffffffffffffffffff82169050919050565b6000610a3782610a0c565b9050919050565b610a4781610a2c565b8114610a5257600080fd5b50565b600081359050610a6481610a3e565b92915050565b600060208284031215610a8057610a7f610a02565b5b6000610a8e84828501610a55565b91505092915050565b610aa081610a2c565b82525050565b6000602082019050610abb6000830184610a97565b92915050565b6000819050919050565b610ad481610ac1565b8114610adf57600080fd5b50565b600081359050610af181610acb565b92915050565b600080600060608486031215610b1057610b0f610a02565b5b6000610b1e86828701610ae2565b9350506020610b2f86828701610ae2565b9250506040610b4086828701610ae2565b9150509250925092565b6000819050919050565b6000610b6f610b6a610b6584610a0c565b610b4a565b610a0c565b9050919050565b6000610b8182610b54565b9050919050565b6000610b9382610b76565b9050919050565b610ba381610b88565b82525050565b6000602082019050610bbe6000830184610b9a565b92915050565b60008060408385031215610bdb57610bda610a02565b5b6000610be985828601610a55565b9250506020610bfa85828601610ae2565b9150509250929050565b610c0d81610ac1565b82525050565b6000602082019050610c286000830184610c04565b92915050565b6000610c3982610b76565b9050919050565b610c4981610c2e565b82525050565b6000602082019050610c646000830184610c40565b92915050565b600080fd5b600080fd5b6000601f19601f8301169050919050565b7f4e487b7100000000000000000000000000000000000000000000000000000000600052604160045260246000fd5b610cbd82610c74565b810181811067ffffffffffffffff82111715610cdc57610cdb610c85565b5b80604052505050565b6000610cef6109f8565b9050610cfb8282610cb4565b919050565b600067ffffffffffffffff821115610d1b57610d1a610c85565b5b610d2482610c74565b9050602081019050919050565b82818337600083830152505050565b6000610d53610d4e84610d00565b610ce5565b905082815260208101848484011115610d6f57610d6e610c6f565b5b610d7a848285610d31565b509392505050565b600082601f830112610d9757610d96610c6a565b5b8135610da7848260208601610d40565b91505092915050565b60008060408385031215610dc757610dc6610a02565b5b6000610dd585828601610ae2565b925050602083013567ffffffffffffffff811115610df657610df5610a07565b5b610e0285828601610d82565b9150509250929050565b6000604082019050610e216000830185610a97565b610e2e6020830184610a97565b9392505050565b600082825260208201905092915050565b7f564f544500000000000000000000000000000000000000000000000000000000600082015250565b6000610e7c600483610e35565b9150610e8782610e46565b602082019050919050565b60006060820190508181036000830152610eab81610e6f565b9050610eba6020830185610c04565b610ec76040830184610c04565b9392505050565b600081519050919050565b600082825260208201905092915050565b60005b83811015610f08578082015181840152602081019050610eed565b60008484015250505050565b6000610f1f82610ece565b610f298185610ed9565b9350610f39818560208601610eea565b610f4281610c74565b840191505092915050565b6000606082019050610f626000830186610c04565b610f6f6020830185610a97565b8181036040830152610f818184610f14565b9050949350505050565b6000604082019050610fa06000830185610a97565b8181036020830152610fb28184610f14565b90509392505050565b6000606082019050610fd06000830186610c04565b610fdd6020830185610c04565b610fea6040830184610c04565b949350505050565b60008151905061100181610acb565b92915050565b60006020828403121561101d5761101c610a02565b5b600061102b84828501610ff2565b91505092915050565b7f4e487b7100000000000000000000000000000000000000000000000000000000600052601160045260246000fd5b600061106e82610ac1565b915061107983610ac1565b925082820261108781610ac1565b9150828204841483151761109e5761109d611034565b5b5092915050565b7f4e487b7100000000000000000000000000000000000000000000000000000000600052601260045260246000fd5b60006110df82610ac1565b91506110ea83610ac1565b9250826110fa576110f96110a5565b5b828204905092915050565b600061111082610ac1565b915061111b83610ac1565b925082820190508082111561113357611132611034565b5b92915050565b600060208201905081810360008301526111538184610f14565b90509291505056fea26469706673582212200537231f5f3a7d146dbd8f179db64ee52c81de561be8d695c01b74bd353ce01064736f6c63430008180033",
  "linkReferences": {},
  "deployedLinkReferences": {}
}