{
  "_format": "hh-sol-artifact-1",
  "contractName": "CathedralKlerosBridge",
  "sourceName": "bridge/kleros/contracts/CathedralKlerosBridge.sol",
  "abi": [
    {
      "inputs": [
        {
          "internalType": "address",
          "name": "_veaRelay",
          "type": "address"
        },
        {
          "internalType": "address",
          "name": "_rbbTargetAddress",
          "type": "address"
        }
      ],
      "stateMutability": "nonpayable",
      "type": "constructor"
    },
    {
      "inputs": [
        {
          "internalType": "address",
          "name": "owner",
          "type": "address"
        }
      ],
      "name": "OwnableInvalidOwner",
      "type": "error"
    },
    {
      "inputs": [
        {
          "internalType": "address",
          "name": "account",
          "type": "address"
        }
      ],
      "name": "OwnableUnauthorizedAccount",
      "type": "error"
    },
    {
      "anonymous": false,
      "inputs": [
        {
          "indexed": true,
          "internalType": "uint256",
          "name": "disputeID",
          "type": "uint256"
        },
        {
          "indexed": true,
          "internalType": "address",
          "name": "sender",
          "type": "address"
        },
        {
          "indexed": false,
          "internalType": "bytes",
          "name": "data",
          "type": "bytes"
        }
      ],
      "name": "DisputeSentToRBB",
      "type": "event"
    },
    {
      "anonymous": false,
      "inputs": [
        {
          "indexed": true,
          "internalType": "address",
          "name": "previousOwner",
          "type": "address"
        },
        {
          "indexed": true,
          "internalType": "address",
          "name": "newOwner",
          "type": "address"
        }
      ],
      "name": "OwnershipTransferred",
      "type": "event"
    },
    {
      "anonymous": false,
      "inputs": [
        {
          "indexed": false,
          "internalType": "address",
          "name": "oldTarget",
          "type": "address"
        },
        {
          "indexed": false,
          "internalType": "address",
          "name": "newTarget",
          "type": "address"
        }
      ],
      "name": "RBBTargetUpdated",
      "type": "event"
    },
    {
      "anonymous": false,
      "inputs": [
        {
          "indexed": false,
          "internalType": "address",
          "name": "oldRelay",
          "type": "address"
        },
        {
          "indexed": false,
          "internalType": "address",
          "name": "newRelay",
          "type": "address"
        }
      ],
      "name": "VeaRelayUpdated",
      "type": "event"
    },
    {
      "inputs": [],
      "name": "owner",
      "outputs": [
        {
          "internalType": "address",
          "name": "",
          "type": "address"
        }
      ],
      "stateMutability": "view",
      "type": "function"
    },
    {
      "inputs": [],
      "name": "rbbTargetAddress",
      "outputs": [
        {
          "internalType": "address",
          "name": "",
          "type": "address"
        }
      ],
      "stateMutability": "view",
      "type": "function"
    },
    {
      "inputs": [],
      "name": "renounceOwnership",
      "outputs": [],
      "stateMutability": "nonpayable",
      "type": "function"
    },
    {
      "inputs": [
        {
          "internalType": "uint256",
          "name": "disputeID",
          "type": "uint256"
        },
        {
          "internalType": "bytes",
          "name": "data",
          "type": "bytes"
        }
      ],
      "name": "sendDisputeToRBB",
      "outputs": [],
      "stateMutability": "nonpayable",
      "type": "function"
    },
    {
      "inputs": [
        {
          "internalType": "address",
          "name": "_rbbTargetAddress",
          "type": "address"
        }
      ],
      "name": "setRBBTargetAddress",
      "outputs": [],
      "stateMutability": "nonpayable",
      "type": "function"
    },
    {
      "inputs": [
        {
          "internalType": "address",
          "name": "_veaRelay",
          "type": "address"
        }
      ],
      "name": "setVeaRelay",
      "outputs": [],
      "stateMutability": "nonpayable",
      "type": "function"
    },
    {
      "inputs": [
        {
          "internalType": "address",
          "name": "newOwner",
          "type": "address"
        }
      ],
      "name": "transferOwnership",
      "outputs": [],
      "stateMutability": "nonpayable",
      "type": "function"
    },
    {
      "inputs": [],
      "name": "veaRelay",
      "outputs": [
        {
          "internalType": "contract IVeaRelay",
          "name": "",
          "type": "address"
        }
      ],
      "stateMutability": "view",
      "type": "function"
    }
  ],
  "bytecode": "0x60806040523480156200001157600080fd5b5060405162000dd238038062000dd2833981810160405281019062000037919062000277565b33600073ffffffffffffffffffffffffffffffffffffffff168173ffffffffffffffffffffffffffffffffffffffff1603620000ad5760006040517f1e4fbdf7000000000000000000000000000000000000000000000000000000008152600401620000a49190620002cf565b60405180910390fd5b620000be816200014960201b60201c565b5081600160006101000a81548173ffffffffffffffffffffffffffffffffffffffff021916908373ffffffffffffffffffffffffffffffffffffffff16021790555080600260006101000a81548173ffffffffffffffffffffffffffffffffffffffff021916908373ffffffffffffffffffffffffffffffffffffffff1602179055505050620002ec565b60008060009054906101000a900473ffffffffffffffffffffffffffffffffffffffff169050816000806101000a81548173ffffffffffffffffffffffffffffffffffffffff021916908373ffffffffffffffffffffffffffffffffffffffff1602179055508173ffffffffffffffffffffffffffffffffffffffff168173ffffffffffffffffffffffffffffffffffffffff167f8be0079c531659141344cd1fd0a4f28419497f9722a3daafe3b4186f6b6457e060405160405180910390a35050565b600080fd5b600073ffffffffffffffffffffffffffffffffffffffff82169050919050565b60006200023f8262000212565b9050919050565b620002518162000232565b81146200025d57600080fd5b50565b600081519050620002718162000246565b92915050565b600080604083850312156200029157620002906200020d565b5b6000620002a18582860162000260565b9250506020620002b48582860162000260565b9150509250929050565b620002c98162000232565b82525050565b6000602082019050620002e66000830184620002be565b92915050565b610ad680620002fc6000396000f3fe608060405234801561001057600080fd5b50600436106100885760003560e01c8063bbad480b1161005b578063bbad480b146100ef578063dd9658531461010d578063f2fde38b14610129578063fcf2621c1461014557610088565b8063111b4af31461008d57806333900d18146100a9578063715018a6146100c75780638da5cb5b146100d1575b600080fd5b6100a760048036038101906100a291906106b0565b610161565b005b6100b1610208565b6040516100be91906106ec565b60405180910390f35b6100cf61022e565b005b6100d9610242565b6040516100e691906106ec565b60405180910390f35b6100f761026b565b6040516101049190610766565b60405180910390f35b610127600480360381019061012291906108fd565b610291565b005b610143600480360381019061013e91906106b0565b6103be565b005b61015f600480360381019061015a91906106b0565b610444565b005b6101696104eb565b7f6be5fd9d4ac61943d5d544a71b70a12e80c50a10e3cfbf112128290f3f53a507600160009054906101000a900473ffffffffffffffffffffffffffffffffffffffff16826040516101bc929190610959565b60405180910390a180600160006101000a81548173ffffffffffffffffffffffffffffffffffffffff021916908373ffffffffffffffffffffffffffffffffffffffff16021790555050565b600260009054906101000a900473ffffffffffffffffffffffffffffffffffffffff1681565b6102366104eb565b6102406000610572565b565b60008060009054906101000a900473ffffffffffffffffffffffffffffffffffffffff16905090565b600160009054906101000a900473ffffffffffffffffffffffffffffffffffffffff1681565b60008233836040516020016102a893929190610a10565b6040516020818303038152906040529050600160009054906101000a900473ffffffffffffffffffffffffffffffffffffffff1673ffffffffffffffffffffffffffffffffffffffff1663bb5ddb0f600260009054906101000a900473ffffffffffffffffffffffffffffffffffffffff16836040518363ffffffff1660e01b8152600401610338929190610a4e565b600060405180830381600087803b15801561035257600080fd5b505af1158015610366573d6000803e3d6000fd5b505050503373ffffffffffffffffffffffffffffffffffffffff16837ff7b8586cdc23b86e3c55f6246d36654761a666ef1dbd8fa45484bdce52a95c71846040516103b19190610a7e565b60405180910390a3505050565b6103c66104eb565b600073ffffffffffffffffffffffffffffffffffffffff168173ffffffffffffffffffffffffffffffffffffffff16036104385760006040517f1e4fbdf700000000000000000000000000000000000000000000000000000000815260040161042f91906106ec565b60405180910390fd5b61044181610572565b50565b61044c6104eb565b7f373301681903967ce1914da76f353066453eaeea7158831d63d21aa78dc26cb7600260009054906101000a900473ffffffffffffffffffffffffffffffffffffffff168260405161049f929190610959565b60405180910390a180600260006101000a81548173ffffffffffffffffffffffffffffffffffffffff021916908373ffffffffffffffffffffffffffffffffffffffff16021790555050565b6104f3610636565b73ffffffffffffffffffffffffffffffffffffffff16610511610242565b73ffffffffffffffffffffffffffffffffffffffff161461057057610534610636565b6040517f118cdaa700000000000000000000000000000000000000000000000000000000815260040161056791906106ec565b60405180910390fd5b565b60008060009054906101000a900473ffffffffffffffffffffffffffffffffffffffff169050816000806101000a81548173ffffffffffffffffffffffffffffffffffffffff021916908373ffffffffffffffffffffffffffffffffffffffff1602179055508173ffffffffffffffffffffffffffffffffffffffff168173ffffffffffffffffffffffffffffffffffffffff167f8be0079c531659141344cd1fd0a4f28419497f9722a3daafe3b4186f6b6457e060405160405180910390a35050565b600033905090565b6000604051905090565b600080fd5b600080fd5b600073ffffffffffffffffffffffffffffffffffffffff82169050919050565b600061067d82610652565b9050919050565b61068d81610672565b811461069857600080fd5b50565b6000813590506106aa81610684565b92915050565b6000602082840312156106c6576106c5610648565b5b60006106d48482850161069b565b91505092915050565b6106e681610672565b82525050565b600060208201905061070160008301846106dd565b92915050565b6000819050919050565b600061072c61072761072284610652565b610707565b610652565b9050919050565b600061073e82610711565b9050919050565b600061075082610733565b9050919050565b61076081610745565b82525050565b600060208201905061077b6000830184610757565b92915050565b6000819050919050565b61079481610781565b811461079f57600080fd5b50565b6000813590506107b18161078b565b92915050565b600080fd5b600080fd5b6000601f19601f8301169050919050565b7f4e487b7100000000000000000000000000000000000000000000000000000000600052604160045260246000fd5b61080a826107c1565b810181811067ffffffffffffffff82111715610829576108286107d2565b5b80604052505050565b600061083c61063e565b90506108488282610801565b919050565b600067ffffffffffffffff821115610868576108676107d2565b5b610871826107c1565b9050602081019050919050565b82818337600083830152505050565b60006108a061089b8461084d565b610832565b9050828152602081018484840111156108bc576108bb6107bc565b5b6108c784828561087e565b509392505050565b600082601f8301126108e4576108e36107b7565b5b81356108f484826020860161088d565b91505092915050565b6000806040838503121561091457610913610648565b5b6000610922858286016107a2565b925050602083013567ffffffffffffffff8111156109435761094261064d565b5b61094f858286016108cf565b9150509250929050565b600060408201905061096e60008301856106dd565b61097b60208301846106dd565b9392505050565b61098b81610781565b82525050565b600081519050919050565b600082825260208201905092915050565b60005b838110156109cb5780820151818401526020810190506109b0565b60008484015250505050565b60006109e282610991565b6109ec818561099c565b93506109fc8185602086016109ad565b610a05816107c1565b840191505092915050565b6000606082019050610a256000830186610982565b610a3260208301856106dd565b8181036040830152610a4481846109d7565b9050949350505050565b6000604082019050610a6360008301856106dd565b8181036020830152610a7581846109d7565b90509392505050565b60006020820190508181036000830152610a9881846109d7565b90509291505056fea2646970667358221220b7136e3d17422b73942332e1ada5e5bf0cd45e788cd3262490fbe382f6a7f71964736f6c63430008180033",
  "linkReferences": {},
  "deployedLinkReferences": {}
}